{
  "_format": "hh-sol-artifact-1",
  "contractName": "Validator",
  "sourceName": "contracts/Validator.sol",
  "abi": [
    {
      "inputs": [
        {
          "internalType": "address",
          "name": "tokenAddress",
          "type": "address"
        }
      ],
      "stateMutability": "nonpayable",
      "type": "constructor"
    },
    {
      "anonymous": false,
      "inputs": [
        {
          "indexed": true,
          "internalType": "address",
          "name": "previousOwner",
          "type": "address"
        },
        {
          "indexed": true,
          "internalType": "address",
          "name": "newOwner",
          "type": "address"
        }
      ],
      "name": "OwnershipTransferred",
      "type": "event"
    },
    {
      "inputs": [],
      "name": "blockReward",
      "outputs": [
        {
          "internalType": "uint256",
          "name": "",
          "type": "uint256"
        }
      ],
      "stateMutability": "view",
      "type": "function"
    },
    {
      "inputs": [
        {
          "internalType": "address",
          "name": "validator",
          "type": "address"
        }
      ],
      "name": "createBlock",
      "outputs": [],
      "stateMutability": "nonpayable",
      "type": "function"
    },
    {
      "inputs": [],
      "name": "energyToken",
      "outputs": [
        {
          "internalType": "contract EnergyToken",
          "name": "",
          "type": "address"
        }
      ],
      "stateMutability": "view",
      "type": "function"
    },
    {
      "inputs": [],
      "name": "owner",
      "outputs": [
        {
          "internalType": "address",
          "name": "",
          "type": "address"
        }
      ],
      "stateMutability": "view",
      "type": "function"
    },
    {
      "inputs": [],
      "name": "renounceOwnership",
      "outputs": [],
      "stateMutability": "nonpayable",
      "type": "function"
    },
    {
      "inputs": [
        {
          "internalType": "address",
          "name": "newOwner",
          "type": "address"
        }
      ],
      "name": "transferOwnership",
      "outputs": [],
      "stateMutability": "nonpayable",
      "type": "function"
    }
  ],
  "bytecode": "0x6080604052600a60025534801561001557600080fd5b506040516109ac3803806109ac83398181016040528101906100379190610149565b600061004761012c60201b60201c565b9050806000806101000a81548173ffffffffffffffffffffffffffffffffffffffff021916908373ffffffffffffffffffffffffffffffffffffffff1602179055508073ffffffffffffffffffffffffffffffffffffffff16600073ffffffffffffffffffffffffffffffffffffffff167f8be0079c531659141344cd1fd0a4f28419497f9722a3daafe3b4186f6b6457e060405160405180910390a35080600160006101000a81548173ffffffffffffffffffffffffffffffffffffffff021916908373ffffffffffffffffffffffffffffffffffffffff160217905550506101bb565b600033905090565b600081519050610143816101a4565b92915050565b60006020828403121561015b57600080fd5b600061016984828501610134565b91505092915050565b600061017d82610184565b9050919050565b600073ffffffffffffffffffffffffffffffffffffffff82169050919050565b6101ad81610172565b81146101b857600080fd5b50565b6107e2806101ca6000396000f3fe608060405234801561001057600080fd5b50600436106100625760003560e01c80630ac168a1146100675780634ec7fb8114610085578063715018a6146100a35780638da5cb5b146100ad578063b9bd0ae4146100cb578063f2fde38b146100e7575b600080fd5b61006f610103565b60405161007c9190610709565b60405180910390f35b61008d610109565b60405161009a91906106ae565b60405180910390f35b6100ab61012f565b005b6100b5610269565b6040516100c2919061066a565b60405180910390f35b6100e560048036038101906100e0919061056e565b610292565b005b61010160048036038101906100fc919061056e565b6103a8565b005b60025481565b600160009054906101000a900473ffffffffffffffffffffffffffffffffffffffff1681565b610137610551565b73ffffffffffffffffffffffffffffffffffffffff16610155610269565b73ffffffffffffffffffffffffffffffffffffffff16146101ab576040517f08c379a00000000000000000000000000000000000000000000000000000000081526004016101a2906106e9565b60405180910390fd5b600073ffffffffffffffffffffffffffffffffffffffff1660008054906101000a900473ffffffffffffffffffffffffffffffffffffffff1673ffffffffffffffffffffffffffffffffffffffff167f8be0079c531659141344cd1fd0a4f28419497f9722a3daafe3b4186f6b6457e060405160405180910390a360008060006101000a81548173ffffffffffffffffffffffffffffffffffffffff021916908373ffffffffffffffffffffffffffffffffffffffff160217905550565b60008060009054906101000a900473ffffffffffffffffffffffffffffffffffffffff16905090565b61029a610551565b73ffffffffffffffffffffffffffffffffffffffff166102b8610269565b73ffffffffffffffffffffffffffffffffffffffff161461030e576040517f08c379a0000000000000000000000000000000000000000000000000000000008152600401610305906106e9565b60405180910390fd5b60006002549050600160009054906101000a900473ffffffffffffffffffffffffffffffffffffffff1673ffffffffffffffffffffffffffffffffffffffff166340c10f1983836040518363ffffffff1660e01b8152600401610372929190610685565b600060405180830381600087803b15801561038c57600080fd5b505af11580156103a0573d6000803e3d6000fd5b505050505050565b6103b0610551565b73ffffffffffffffffffffffffffffffffffffffff166103ce610269565b73ffffffffffffffffffffffffffffffffffffffff1614610424576040517f08c379a000000000000000000000000000000000000000000000000000000000815260040161041b906106e9565b60405180910390fd5b600073ffffffffffffffffffffffffffffffffffffffff168173ffffffffffffffffffffffffffffffffffffffff161415610494576040517f08c379a000000000000000000000000000000000000000000000000000000000815260040161048b906106c9565b60405180910390fd5b8073ffffffffffffffffffffffffffffffffffffffff1660008054906101000a900473ffffffffffffffffffffffffffffffffffffffff1673ffffffffffffffffffffffffffffffffffffffff167f8be0079c531659141344cd1fd0a4f28419497f9722a3daafe3b4186f6b6457e060405160405180910390a3806000806101000a81548173ffffffffffffffffffffffffffffffffffffffff021916908373ffffffffffffffffffffffffffffffffffffffff16021790555050565b600033905090565b60008135905061056881610795565b92915050565b60006020828403121561058057600080fd5b600061058e84828501610559565b91505092915050565b6105a081610735565b82525050565b6105af81610771565b82525050565b60006105c2602683610724565b91507f4f776e61626c653a206e6577206f776e657220697320746865207a65726f206160008301527f64647265737300000000000000000000000000000000000000000000000000006020830152604082019050919050565b6000610628602083610724565b91507f4f776e61626c653a2063616c6c6572206973206e6f7420746865206f776e65726000830152602082019050919050565b61066481610767565b82525050565b600060208201905061067f6000830184610597565b92915050565b600060408201905061069a6000830185610597565b6106a7602083018461065b565b9392505050565b60006020820190506106c360008301846105a6565b92915050565b600060208201905081810360008301526106e2816105b5565b9050919050565b600060208201905081810360008301526107028161061b565b9050919050565b600060208201905061071e600083018461065b565b92915050565b600082825260208201905092915050565b600061074082610747565b9050919050565b600073ffffffffffffffffffffffffffffffffffffffff82169050919050565b6000819050919050565b600061077c82610783565b9050919050565b600061078e82610747565b9050919050565b61079e81610735565b81146107a957600080fd5b5056fea26469706673582212205435ce782435a9b2db3c029182ad9c4d370a41c2fb933e8d247fcf151284b82764736f6c63430008000033",
  "linkReferences": {},
  "deployedLinkReferences": {}
}