{
  "_format": "hh-sol-artifact-1",
  "contractName": "EnergyToken",
  "sourceName": "contracts/EnergyToken.sol",
  "abi": [
    {
      "inputs": [],
      "stateMutability": "nonpayable",
      "type": "constructor"
    },
    {
      "anonymous": false,
      "inputs": [
        {
          "indexed": true,
          "internalType": "address",
          "name": "owner",
          "type": "address"
        },
        {
          "indexed": true,
          "internalType": "address",
          "name": "spender",
          "type": "address"
        },
        {
          "indexed": false,
          "internalType": "uint256",
          "name": "value",
          "type": "uint256"
        }
      ],
      "name": "Approval",
      "type": "event"
    },
    {
      "anonymous": false,
      "inputs": [
        {
          "indexed": true,
          "internalType": "address",
          "name": "previousOwner",
          "type": "address"
        },
        {
          "indexed": true,
          "internalType": "address",
          "name": "newOwner",
          "type": "address"
        }
      ],
      "name": "OwnershipTransferred",
      "type": "event"
    },
    {
      "anonymous": false,
      "inputs": [
        {
          "indexed": false,
          "internalType": "address",
          "name": "account",
          "type": "address"
        }
      ],
      "name": "Paused",
      "type": "event"
    },
    {
      "anonymous": false,
      "inputs": [
        {
          "indexed": true,
          "internalType": "address",
          "name": "from",
          "type": "address"
        },
        {
          "indexed": true,
          "internalType": "address",
          "name": "to",
          "type": "address"
        },
        {
          "indexed": false,
          "internalType": "uint256",
          "name": "value",
          "type": "uint256"
        }
      ],
      "name": "Transfer",
      "type": "event"
    },
    {
      "anonymous": false,
      "inputs": [
        {
          "indexed": false,
          "internalType": "address",
          "name": "account",
          "type": "address"
        }
      ],
      "name": "Unpaused",
      "type": "event"
    },
    {
      "inputs": [
        {
          "internalType": "address",
          "name": "owner",
          "type": "address"
        },
        {
          "internalType": "address",
          "name": "spender",
          "type": "address"
        }
      ],
      "name": "allowance",
      "outputs": [
        {
          "internalType": "uint256",
          "name": "",
          "type": "uint256"
        }
      ],
      "stateMutability": "view",
      "type": "function"
    },
    {
      "inputs": [
        {
          "internalType": "address",
          "name": "spender",
          "type": "address"
        },
        {
          "internalType": "uint256",
          "name": "amount",
          "type": "uint256"
        }
      ],
      "name": "approve",
      "outputs": [
        {
          "internalType": "bool",
          "name": "",
          "type": "bool"
        }
      ],
      "stateMutability": "nonpayable",
      "type": "function"
    },
    {
      "inputs": [
        {
          "internalType": "address",
          "name": "account",
          "type": "address"
        }
      ],
      "name": "balanceOf",
      "outputs": [
        {
          "internalType": "uint256",
          "name": "",
          "type": "uint256"
        }
      ],
      "stateMutability": "view",
      "type": "function"
    },
    {
      "inputs": [],
      "name": "decimals",
      "outputs": [
        {
          "internalType": "uint8",
          "name": "",
          "type": "uint8"
        }
      ],
      "stateMutability": "view",
      "type": "function"
    },
    {
      "inputs": [
        {
          "internalType": "address",
          "name": "spender",
          "type": "address"
        },
        {
          "internalType": "uint256",
          "name": "subtractedValue",
          "type": "uint256"
        }
      ],
      "name": "decreaseAllowance",
      "outputs": [
        {
          "internalType": "bool",
          "name": "",
          "type": "bool"
        }
      ],
      "stateMutability": "nonpayable",
      "type": "function"
    },
    {
      "inputs": [],
      "name": "distributeRewards",
      "outputs": [],
      "stateMutability": "nonpayable",
      "type": "function"
    },
    {
      "inputs": [
        {
          "internalType": "address",
          "name": "spender",
          "type": "address"
        },
        {
          "internalType": "uint256",
          "name": "addedValue",
          "type": "uint256"
        }
      ],
      "name": "increaseAllowance",
      "outputs": [
        {
          "internalType": "bool",
          "name": "",
          "type": "bool"
        }
      ],
      "stateMutability": "nonpayable",
      "type": "function"
    },
    {
      "inputs": [
        {
          "internalType": "address",
          "name": "to",
          "type": "address"
        },
        {
          "internalType": "uint256",
          "name": "amount",
          "type": "uint256"
        }
      ],
      "name": "mint",
      "outputs": [],
      "stateMutability": "nonpayable",
      "type": "function"
    },
    {
      "inputs": [],
      "name": "name",
      "outputs": [
        {
          "internalType": "string",
          "name": "",
          "type": "string"
        }
      ],
      "stateMutability": "view",
      "type": "function"
    },
    {
      "inputs": [],
      "name": "owner",
      "outputs": [
        {
          "internalType": "address",
          "name": "",
          "type": "address"
        }
      ],
      "stateMutability": "view",
      "type": "function"
    },
    {
      "inputs": [],
      "name": "pause",
      "outputs": [],
      "stateMutability": "nonpayable",
      "type": "function"
    },
    {
      "inputs": [],
      "name": "paused",
      "outputs": [
        {
          "internalType": "bool",
          "name": "",
          "type": "bool"
        }
      ],
      "stateMutability": "view",
      "type": "function"
    },
    {
      "inputs": [],
      "name": "renounceOwnership",
      "outputs": [],
      "stateMutability": "nonpayable",
      "type": "function"
    },
    {
      "inputs": [],
      "name": "rewardRate",
      "outputs": [
        {
          "internalType": "uint256",
          "name": "",
          "type": "uint256"
        }
      ],
      "stateMutability": "view",
      "type": "function"
    },
    {
      "inputs": [
        {
          "internalType": "uint256",
          "name": "amount",
          "type": "uint256"
        }
      ],
      "name": "stake",
      "outputs": [],
      "stateMutability": "nonpayable",
      "type": "function"
    },
    {
      "inputs": [
        {
          "internalType": "address",
          "name": "",
          "type": "address"
        }
      ],
      "name": "stakedBalances",
      "outputs": [
        {
          "internalType": "uint256",
          "name": "",
          "type": "uint256"
        }
      ],
      "stateMutability": "view",
      "type": "function"
    },
    {
      "inputs": [
        {
          "internalType": "uint256",
          "name": "",
          "type": "uint256"
        }
      ],
      "name": "stakerList",
      "outputs": [
        {
          "internalType": "address",
          "name": "",
          "type": "address"
        }
      ],
      "stateMutability": "view",
      "type": "function"
    },
    {
      "inputs": [],
      "name": "symbol",
      "outputs": [
        {
          "internalType": "string",
          "name": "",
          "type": "string"
        }
      ],
      "stateMutability": "view",
      "type": "function"
    },
    {
      "inputs": [],
      "name": "totalStaked",
      "outputs": [
        {
          "internalType": "uint256",
          "name": "",
          "type": "uint256"
        }
      ],
      "stateMutability": "view",
      "type": "function"
    },
    {
      "inputs": [],
      "name": "totalSupply",
      "outputs": [
        {
          "internalType": "uint256",
          "name": "",
          "type": "uint256"
        }
      ],
      "stateMutability": "view",
      "type": "function"
    },
    {
      "inputs": [
        {
          "internalType": "address",
          "name": "recipient",
          "type": "address"
        },
        {
          "internalType": "uint256",
          "name": "amount",
          "type": "uint256"
        }
      ],
      "name": "transfer",
      "outputs": [
        {
          "internalType": "bool",
          "name": "",
          "type": "bool"
        }
      ],
      "stateMutability": "nonpayable",
      "type": "function"
    },
    {
      "inputs": [
        {
          "internalType": "address",
          "name": "sender",
          "type": "address"
        },
        {
          "internalType": "address",
          "name": "recipient",
          "type": "address"
        },
        {
          "internalType": "uint256",
          "name": "amount",
          "type": "uint256"
        }
      ],
      "name": "transferFrom",
      "outputs": [
        {
          "internalType": "bool",
          "name": "",
          "type": "bool"
        }
      ],
      "stateMutability": "nonpayable",
      "type": "function"
    },
    {
      "inputs": [
        {
          "internalType": "address",
          "name": "newOwner",
          "type": "address"
        }
      ],
      "name": "transferOwnership",
      "outputs": [],
      "stateMutability": "nonpayable",
      "type": "function"
    },
    {
      "inputs": [],
      "name": "unpause",
      "outputs": [],
      "stateMutability": "nonpayable",
      "type": "function"
    },
    {
      "inputs": [
        {
          "internalType": "uint256",
          "name": "amount",
          "type": "uint256"
        }
      ],
      "name": "unstake",
      "outputs": [],
      "stateMutability": "nonpayable",
      "type": "function"
    }
  ],
  "bytecode": "0x608060405260016008553480156200001657600080fd5b506040518060400160405280600c81526020017f456e6572677920546f6b656e00000000000000000000000000000000000000008152506040518060400160405280600381526020017f45544b000000000000000000000000000000000000000000000000000000000081525081600390805190602001906200009b92919062000191565b508060049080519060200190620000b492919062000191565b5050506000600560006101000a81548160ff0219169083151502179055506000620000e46200018960201b60201c565b905080600560016101000a81548173ffffffffffffffffffffffffffffffffffffffff021916908373ffffffffffffffffffffffffffffffffffffffff1602179055508073ffffffffffffffffffffffffffffffffffffffff16600073ffffffffffffffffffffffffffffffffffffffff167f8be0079c531659141344cd1fd0a4f28419497f9722a3daafe3b4186f6b6457e060405160405180910390a350620002a6565b600033905090565b8280546200019f9062000241565b90600052602060002090601f016020900481019282620001c357600085556200020f565b82601f10620001de57805160ff19168380011785556200020f565b828001600101855582156200020f579182015b828111156200020e578251825591602001919060010190620001f1565b5b5090506200021e919062000222565b5090565b5b808211156200023d57600081600090555060010162000223565b5090565b600060028204905060018216806200025a57607f821691505b6020821081141562000271576200027062000277565b5b50919050565b7f4e487b7100000000000000000000000000000000000000000000000000000000600052602260045260246000fd5b61283480620002b66000396000f3fe608060405234801561001057600080fd5b50600436106101735760003560e01c80636f4a2cd0116100de5780638da5cb5b11610097578063a694fc3a11610071578063a694fc3a14610418578063a9059cbb14610434578063dd62ed3e14610464578063f2fde38b1461049457610173565b80638da5cb5b146103ac57806395d89b41146103ca578063a457c2d7146103e857610173565b80636f4a2cd01461032257806370a082311461032c578063715018a61461035c5780637b0a47ee14610366578063817b1cd2146103845780638456cb59146103a257610173565b8063313ce56711610130578063313ce56714610260578063348e50c61461027e57806339509351146102ae5780633f4ba83a146102de57806340c10f19146102e85780635c975abb1461030457610173565b806306fdde0314610178578063095ea7b3146101965780631460fa87146101c657806318160ddd146101f657806323b872dd146102145780632e17de7814610244575b600080fd5b6101806104b0565b60405161018d91906122e6565b60405180910390f35b6101b060048036038101906101ab9190611d26565b610542565b6040516101bd91906122cb565b60405180910390f35b6101e060048036038101906101db9190611c72565b610560565b6040516101ed91906124c8565b60405180910390f35b6101fe610578565b60405161020b91906124c8565b60405180910390f35b61022e60048036038101906102299190611cd7565b610582565b60405161023b91906122cb565b60405180910390f35b61025e60048036038101906102599190611d62565b610683565b005b6102686107d4565b60405161027591906124e3565b60405180910390f35b61029860048036038101906102939190611d62565b6107dd565b6040516102a591906122b0565b60405180910390f35b6102c860048036038101906102c39190611d26565b61081c565b6040516102d591906122cb565b60405180910390f35b6102e66108c8565b005b61030260048036038101906102fd9190611d26565b61094e565b005b61030c6109d8565b60405161031991906122cb565b60405180910390f35b61032a6109ef565b005b61034660048036038101906103419190611c72565b610b63565b60405161035391906124c8565b60405180910390f35b610364610bab565b005b61036e610ce8565b60405161037b91906124c8565b60405180910390f35b61038c610cee565b60405161039991906124c8565b60405180910390f35b6103aa610cf4565b005b6103b4610d7a565b6040516103c191906122b0565b60405180910390f35b6103d2610da4565b6040516103df91906122e6565b60405180910390f35b61040260048036038101906103fd9190611d26565b610e36565b60405161040f91906122cb565b60405180910390f35b610432600480360381019061042d9190611d62565b610f2a565b005b61044e60048036038101906104499190611d26565b6110de565b60405161045b91906122cb565b60405180910390f35b61047e60048036038101906104799190611c9b565b6110fc565b60405161048b91906124c8565b60405180910390f35b6104ae60048036038101906104a99190611c72565b611183565b005b6060600380546104bf906126b7565b80601f01602080910402602001604051908101604052809291908181526020018280546104eb906126b7565b80156105385780601f1061050d57610100808354040283529160200191610538565b820191906000526020600020905b81548152906001019060200180831161051b57829003601f168201915b5050505050905090565b600061055661054f61132f565b8484611337565b6001905092915050565b60066020528060005260406000206000915090505481565b6000600254905090565b600061058f848484611502565b6000600160008673ffffffffffffffffffffffffffffffffffffffff1673ffffffffffffffffffffffffffffffffffffffff16815260200190815260200160002060006105da61132f565b73ffffffffffffffffffffffffffffffffffffffff1673ffffffffffffffffffffffffffffffffffffffff1681526020019081526020016000205490508281101561065a576040517f08c379a0000000000000000000000000000000000000000000000000000000008152600401610651906123e8565b60405180910390fd5b6106778561066661132f565b858461067291906125fb565b611337565b60019150509392505050565b600660003373ffffffffffffffffffffffffffffffffffffffff1673ffffffffffffffffffffffffffffffffffffffff16815260200190815260200160002054811115610705576040517f08c379a00000000000000000000000000000000000000000000000000000000081526004016106fc906123a8565b60405180910390fd5b80600660003373ffffffffffffffffffffffffffffffffffffffff1673ffffffffffffffffffffffffffffffffffffffff168152602001908152602001600020600082825461075491906125fb565b92505081905550806007600082825461076d91906125fb565b9250508190555061077f303383611502565b6000600660003373ffffffffffffffffffffffffffffffffffffffff1673ffffffffffffffffffffffffffffffffffffffff1681526020019081526020016000205414156107d1576107d033611781565b5b50565b60006012905090565b600981815481106107ed57600080fd5b906000526020600020016000915054906101000a900473ffffffffffffffffffffffffffffffffffffffff1681565b60006108be61082961132f565b84846001600061083761132f565b73ffffffffffffffffffffffffffffffffffffffff1673ffffffffffffffffffffffffffffffffffffffff16815260200190815260200160002060008873ffffffffffffffffffffffffffffffffffffffff1673ffffffffffffffffffffffffffffffffffffffff168152602001908152602001600020546108b9919061251a565b611337565b6001905092915050565b6108d061132f565b73ffffffffffffffffffffffffffffffffffffffff166108ee610d7a565b73ffffffffffffffffffffffffffffffffffffffff1614610944576040517f08c379a000000000000000000000000000000000000000000000000000000000815260040161093b90612408565b60405180910390fd5b61094c6119aa565b565b61095661132f565b73ffffffffffffffffffffffffffffffffffffffff16610974610d7a565b73ffffffffffffffffffffffffffffffffffffffff16146109ca576040517f08c379a00000000000000000000000000000000000000000000000000000000081526004016109c190612408565b60405180910390fd5b6109d48282611a4c565b5050565b6000600560009054906101000a900460ff16905090565b6109f761132f565b73ffffffffffffffffffffffffffffffffffffffff16610a15610d7a565b73ffffffffffffffffffffffffffffffffffffffff1614610a6b576040517f08c379a0000000000000000000000000000000000000000000000000000000008152600401610a6290612408565b60405180910390fd5b60005b600980549050811015610b6057600060098281548110610ab7577f4e487b7100000000000000000000000000000000000000000000000000000000600052603260045260246000fd5b9060005260206000200160009054906101000a900473ffffffffffffffffffffffffffffffffffffffff16905060006064600854600660008573ffffffffffffffffffffffffffffffffffffffff1673ffffffffffffffffffffffffffffffffffffffff16815260200190815260200160002054610b3591906125a1565b610b3f9190612570565b9050610b4b8282611a4c565b50508080610b58906126e9565b915050610a6e565b50565b60008060008373ffffffffffffffffffffffffffffffffffffffff1673ffffffffffffffffffffffffffffffffffffffff168152602001908152602001600020549050919050565b610bb361132f565b73ffffffffffffffffffffffffffffffffffffffff16610bd1610d7a565b73ffffffffffffffffffffffffffffffffffffffff1614610c27576040517f08c379a0000000000000000000000000000000000000000000000000000000008152600401610c1e90612408565b60405180910390fd5b600073ffffffffffffffffffffffffffffffffffffffff16600560019054906101000a900473ffffffffffffffffffffffffffffffffffffffff1673ffffffffffffffffffffffffffffffffffffffff167f8be0079c531659141344cd1fd0a4f28419497f9722a3daafe3b4186f6b6457e060405160405180910390a36000600560016101000a81548173ffffffffffffffffffffffffffffffffffffffff021916908373ffffffffffffffffffffffffffffffffffffffff160217905550565b60085481565b60075481565b610cfc61132f565b73ffffffffffffffffffffffffffffffffffffffff16610d1a610d7a565b73ffffffffffffffffffffffffffffffffffffffff1614610d70576040517f08c379a0000000000000000000000000000000000000000000000000000000008152600401610d6790612408565b60405180910390fd5b610d78611ba0565b565b6000600560019054906101000a900473ffffffffffffffffffffffffffffffffffffffff16905090565b606060048054610db3906126b7565b80601f0160208091040260200160405190810160405280929190818152602001828054610ddf906126b7565b8015610e2c5780601f10610e0157610100808354040283529160200191610e2c565b820191906000526020600020905b815481529060010190602001808311610e0f57829003601f168201915b5050505050905090565b60008060016000610e4561132f565b73ffffffffffffffffffffffffffffffffffffffff1673ffffffffffffffffffffffffffffffffffffffff16815260200190815260200160002060008573ffffffffffffffffffffffffffffffffffffffff1673ffffffffffffffffffffffffffffffffffffffff16815260200190815260200160002054905082811015610f02576040517f08c379a0000000000000000000000000000000000000000000000000000000008152600401610ef990612488565b60405180910390fd5b610f1f610f0d61132f565b858584610f1a91906125fb565b611337565b600191505092915050565b610f326109d8565b15610f72576040517f08c379a0000000000000000000000000000000000000000000000000000000008152600401610f69906123c8565b60405180910390fd5b60008111610fb5576040517f08c379a0000000000000000000000000000000000000000000000000000000008152600401610fac90612468565b60405180910390fd5b610fc0333083611502565b6000600660003373ffffffffffffffffffffffffffffffffffffffff1673ffffffffffffffffffffffffffffffffffffffff16815260200190815260200160002054141561106c576009339080600181540180825580915050600190039060005260206000200160009091909190916101000a81548173ffffffffffffffffffffffffffffffffffffffff021916908373ffffffffffffffffffffffffffffffffffffffff1602179055505b80600660003373ffffffffffffffffffffffffffffffffffffffff1673ffffffffffffffffffffffffffffffffffffffff16815260200190815260200160002060008282546110bb919061251a565b9250508190555080600760008282546110d4919061251a565b9250508190555050565b60006110f26110eb61132f565b8484611502565b6001905092915050565b6000600160008473ffffffffffffffffffffffffffffffffffffffff1673ffffffffffffffffffffffffffffffffffffffff16815260200190815260200160002060008373ffffffffffffffffffffffffffffffffffffffff1673ffffffffffffffffffffffffffffffffffffffff16815260200190815260200160002054905092915050565b61118b61132f565b73ffffffffffffffffffffffffffffffffffffffff166111a9610d7a565b73ffffffffffffffffffffffffffffffffffffffff16146111ff576040517f08c379a00000000000000000000000000000000000000000000000000000000081526004016111f690612408565b60405180910390fd5b600073ffffffffffffffffffffffffffffffffffffffff168173ffffffffffffffffffffffffffffffffffffffff16141561126f576040517f08c379a000000000000000000000000000000000000000000000000000000000815260040161126690612348565b60405180910390fd5b8073ffffffffffffffffffffffffffffffffffffffff16600560019054906101000a900473ffffffffffffffffffffffffffffffffffffffff1673ffffffffffffffffffffffffffffffffffffffff167f8be0079c531659141344cd1fd0a4f28419497f9722a3daafe3b4186f6b6457e060405160405180910390a380600560016101000a81548173ffffffffffffffffffffffffffffffffffffffff021916908373ffffffffffffffffffffffffffffffffffffffff16021790555050565b600033905090565b600073ffffffffffffffffffffffffffffffffffffffff168373ffffffffffffffffffffffffffffffffffffffff1614156113a7576040517f08c379a000000000000000000000000000000000000000000000000000000000815260040161139e90612448565b60405180910390fd5b600073ffffffffffffffffffffffffffffffffffffffff168273ffffffffffffffffffffffffffffffffffffffff161415611417576040517f08c379a000000000000000000000000000000000000000000000000000000000815260040161140e90612368565b60405180910390fd5b80600160008573ffffffffffffffffffffffffffffffffffffffff1673ffffffffffffffffffffffffffffffffffffffff16815260200190815260200160002060008473ffffffffffffffffffffffffffffffffffffffff1673ffffffffffffffffffffffffffffffffffffffff168152602001908152602001600020819055508173ffffffffffffffffffffffffffffffffffffffff168373ffffffffffffffffffffffffffffffffffffffff167f8c5be1e5ebec7d5bd14f71427d1e84f3dd0314c0f7b2291e5b200ac8c7c3b925836040516114f591906124c8565b60405180910390a3505050565b600073ffffffffffffffffffffffffffffffffffffffff168373ffffffffffffffffffffffffffffffffffffffff161415611572576040517f08c379a000000000000000000000000000000000000000000000000000000000815260040161156990612428565b60405180910390fd5b600073ffffffffffffffffffffffffffffffffffffffff168273ffffffffffffffffffffffffffffffffffffffff1614156115e2576040517f08c379a00000000000000000000000000000000000000000000000000000000081526004016115d990612308565b60405180910390fd5b6115ed838383611c43565b60008060008573ffffffffffffffffffffffffffffffffffffffff1673ffffffffffffffffffffffffffffffffffffffff16815260200190815260200160002054905081811015611673576040517f08c379a000000000000000000000000000000000000000000000000000000000815260040161166a90612388565b60405180910390fd5b818161167f91906125fb565b6000808673ffffffffffffffffffffffffffffffffffffffff1673ffffffffffffffffffffffffffffffffffffffff16815260200190815260200160002081905550816000808573ffffffffffffffffffffffffffffffffffffffff1673ffffffffffffffffffffffffffffffffffffffff168152602001908152602001600020600082825461170f919061251a565b925050819055508273ffffffffffffffffffffffffffffffffffffffff168473ffffffffffffffffffffffffffffffffffffffff167fddf252ad1be2c89b69c2b068fc378daa952ba7f163c4a11628f55a4df523b3ef8460405161177391906124c8565b60405180910390a350505050565b60005b6009805490508110156119a6578173ffffffffffffffffffffffffffffffffffffffff16600982815481106117e2577f4e487b7100000000000000000000000000000000000000000000000000000000600052603260045260246000fd5b9060005260206000200160009054906101000a900473ffffffffffffffffffffffffffffffffffffffff1673ffffffffffffffffffffffffffffffffffffffff161415611993576009600160098054905061183d91906125fb565b81548110611874577f4e487b7100000000000000000000000000000000000000000000000000000000600052603260045260246000fd5b9060005260206000200160009054906101000a900473ffffffffffffffffffffffffffffffffffffffff16600982815481106118d9577f4e487b7100000000000000000000000000000000000000000000000000000000600052603260045260246000fd5b9060005260206000200160006101000a81548173ffffffffffffffffffffffffffffffffffffffff021916908373ffffffffffffffffffffffffffffffffffffffff1602179055506009805480611959577f4e487b7100000000000000000000000000000000000000000000000000000000600052603160045260246000fd5b6001900381819060005260206000200160006101000a81549073ffffffffffffffffffffffffffffffffffffffff021916905590556119a6565b808061199e906126e9565b915050611784565b5050565b6119b26109d8565b6119f1576040517f08c379a00000000000000000000000000000000000000000000000000000000081526004016119e890612328565b60405180910390fd5b6000600560006101000a81548160ff0219169083151502179055507f5db9ee0a495bf2e6ff9c91a7834c1ba4fdd244a5e8aa4e537bd38aeae4b073aa611a3561132f565b604051611a4291906122b0565b60405180910390a1565b600073ffffffffffffffffffffffffffffffffffffffff168273ffffffffffffffffffffffffffffffffffffffff161415611abc576040517f08c379a0000000000000000000000000000000000000000000000000000000008152600401611ab3906124a8565b60405180910390fd5b611ac860008383611c43565b8060026000828254611ada919061251a565b92505081905550806000808473ffffffffffffffffffffffffffffffffffffffff1673ffffffffffffffffffffffffffffffffffffffff1681526020019081526020016000206000828254611b2f919061251a565b925050819055508173ffffffffffffffffffffffffffffffffffffffff16600073ffffffffffffffffffffffffffffffffffffffff167fddf252ad1be2c89b69c2b068fc378daa952ba7f163c4a11628f55a4df523b3ef83604051611b9491906124c8565b60405180910390a35050565b611ba86109d8565b15611be8576040517f08c379a0000000000000000000000000000000000000000000000000000000008152600401611bdf906123c8565b60405180910390fd5b6001600560006101000a81548160ff0219169083151502179055507f62e78cea01bee320cd4e420270b5ea74000d11b0c9f74754ebdbfc544b05a258611c2c61132f565b604051611c3991906122b0565b60405180910390a1565b505050565b600081359050611c57816127d0565b92915050565b600081359050611c6c816127e7565b92915050565b600060208284031215611c8457600080fd5b6000611c9284828501611c48565b91505092915050565b60008060408385031215611cae57600080fd5b6000611cbc85828601611c48565b9250506020611ccd85828601611c48565b9150509250929050565b600080600060608486031215611cec57600080fd5b6000611cfa86828701611c48565b9350506020611d0b86828701611c48565b9250506040611d1c86828701611c5d565b9150509250925092565b60008060408385031215611d3957600080fd5b6000611d4785828601611c48565b9250506020611d5885828601611c5d565b9150509250929050565b600060208284031215611d7457600080fd5b6000611d8284828501611c5d565b91505092915050565b611d948161262f565b82525050565b611da381612641565b82525050565b6000611db4826124fe565b611dbe8185612509565b9350611dce818560208601612684565b611dd7816127bf565b840191505092915050565b6000611def602383612509565b91507f45524332303a207472616e7366657220746f20746865207a65726f206164647260008301527f65737300000000000000000000000000000000000000000000000000000000006020830152604082019050919050565b6000611e55601483612509565b91507f5061757361626c653a206e6f74207061757365640000000000000000000000006000830152602082019050919050565b6000611e95602683612509565b91507f4f776e61626c653a206e6577206f776e657220697320746865207a65726f206160008301527f64647265737300000000000000000000000000000000000000000000000000006020830152604082019050919050565b6000611efb602283612509565b91507f45524332303a20617070726f766520746f20746865207a65726f20616464726560008301527f73730000000000000000000000000000000000000000000000000000000000006020830152604082019050919050565b6000611f61602683612509565b91507f45524332303a207472616e7366657220616d6f756e742065786365656473206260008301527f616c616e636500000000000000000000000000000000000000000000000000006020830152604082019050919050565b6000611fc7601b83612509565b91507f496e73756666696369656e74207374616b65642062616c616e636500000000006000830152602082019050919050565b6000612007601083612509565b91507f5061757361626c653a20706175736564000000000000000000000000000000006000830152602082019050919050565b6000612047602883612509565b91507f45524332303a207472616e7366657220616d6f756e742065786365656473206160008301527f6c6c6f77616e63650000000000000000000000000000000000000000000000006020830152604082019050919050565b60006120ad602083612509565b91507f4f776e61626c653a2063616c6c6572206973206e6f7420746865206f776e65726000830152602082019050919050565b60006120ed602583612509565b91507f45524332303a207472616e736665722066726f6d20746865207a65726f20616460008301527f64726573730000000000000000000000000000000000000000000000000000006020830152604082019050919050565b6000612153602483612509565b91507f45524332303a20617070726f76652066726f6d20746865207a65726f2061646460008301527f72657373000000000000000000000000000000000000000000000000000000006020830152604082019050919050565b60006121b9601583612509565b91507f43616e6e6f74207374616b65203020746f6b656e7300000000000000000000006000830152602082019050919050565b60006121f9602583612509565b91507f45524332303a2064656372656173656420616c6c6f77616e63652062656c6f7760008301527f207a65726f0000000000000000000000000000000000000000000000000000006020830152604082019050919050565b600061225f601f83612509565b91507f45524332303a206d696e7420746f20746865207a65726f2061646472657373006000830152602082019050919050565b61229b8161266d565b82525050565b6122aa81612677565b82525050565b60006020820190506122c56000830184611d8b565b92915050565b60006020820190506122e06000830184611d9a565b92915050565b600060208201905081810360008301526123008184611da9565b905092915050565b6000602082019050818103600083015261232181611de2565b9050919050565b6000602082019050818103600083015261234181611e48565b9050919050565b6000602082019050818103600083015261236181611e88565b9050919050565b6000602082019050818103600083015261238181611eee565b9050919050565b600060208201905081810360008301526123a181611f54565b9050919050565b600060208201905081810360008301526123c181611fba565b9050919050565b600060208201905081810360008301526123e181611ffa565b9050919050565b600060208201905081810360008301526124018161203a565b9050919050565b60006020820190508181036000830152612421816120a0565b9050919050565b60006020820190508181036000830152612441816120e0565b9050919050565b6000602082019050818103600083015261246181612146565b9050919050565b60006020820190508181036000830152612481816121ac565b9050919050565b600060208201905081810360008301526124a1816121ec565b9050919050565b600060208201905081810360008301526124c181612252565b9050919050565b60006020820190506124dd6000830184612292565b92915050565b60006020820190506124f860008301846122a1565b92915050565b600081519050919050565b600082825260208201905092915050565b60006125258261266d565b91506125308361266d565b9250827fffffffffffffffffffffffffffffffffffffffffffffffffffffffffffffffff0382111561256557612564612732565b5b828201905092915050565b600061257b8261266d565b91506125868361266d565b92508261259657612595612761565b5b828204905092915050565b60006125ac8261266d565b91506125b78361266d565b9250817fffffffffffffffffffffffffffffffffffffffffffffffffffffffffffffffff04831182151516156125f0576125ef612732565b5b828202905092915050565b60006126068261266d565b91506126118361266d565b92508282101561262457612623612732565b5b828203905092915050565b600061263a8261264d565b9050919050565b60008115159050919050565b600073ffffffffffffffffffffffffffffffffffffffff82169050919050565b6000819050919050565b600060ff82169050919050565b60005b838110156126a2578082015181840152602081019050612687565b838111156126b1576000848401525b50505050565b600060028204905060018216806126cf57607f821691505b602082108114156126e3576126e2612790565b5b50919050565b60006126f48261266d565b91507fffffffffffffffffffffffffffffffffffffffffffffffffffffffffffffffff82141561272757612726612732565b5b600182019050919050565b7f4e487b7100000000000000000000000000000000000000000000000000000000600052601160045260246000fd5b7f4e487b7100000000000000000000000000000000000000000000000000000000600052601260045260246000fd5b7f4e487b7100000000000000000000000000000000000000000000000000000000600052602260045260246000fd5b6000601f19601f8301169050919050565b6127d98161262f565b81146127e457600080fd5b50565b6127f08161266d565b81146127fb57600080fd5b5056fea264697066735822122065c918c7b0f6e80d5079a9edceb3b69fce4962984d60a7046faadae3fcfbef4c64736f6c63430008000033",
  "linkReferences": {},
  "deployedLinkReferences": {}
}